{
  "contractName": "SignatureValidator",
  "abi": [
    {
      "inputs": [
        {
          "internalType": "address",
          "name": "_to",
          "type": "address"
        },
        {
          "internalType": "uint256",
          "name": "_tokenId",
          "type": "uint256"
        },
        {
          "internalType": "uint256",
          "name": "_nonce",
          "type": "uint256"
        }
      ],
      "name": "getMessageHash",
      "outputs": [
        {
          "internalType": "bytes32",
          "name": "",
          "type": "bytes32"
        }
      ],
      "stateMutability": "pure",
      "type": "function"
    },
    {
      "inputs": [
        {
          "internalType": "bytes32",
          "name": "_messageHash",
          "type": "bytes32"
        }
      ],
      "name": "getEthSignedMessageHash",
      "outputs": [
        {
          "internalType": "bytes32",
          "name": "",
          "type": "bytes32"
        }
      ],
      "stateMutability": "pure",
      "type": "function"
    },
    {
      "inputs": [
        {
          "internalType": "address",
          "name": "_signer",
          "type": "address"
        },
        {
          "internalType": "address",
          "name": "_to",
          "type": "address"
        },
        {
          "internalType": "uint256",
          "name": "_tokenId",
          "type": "uint256"
        },
        {
          "internalType": "uint256",
          "name": "_nonce",
          "type": "uint256"
        },
        {
          "internalType": "bytes",
          "name": "signature",
          "type": "bytes"
        }
      ],
      "name": "verifyAuthorization",
      "outputs": [
        {
          "internalType": "bool",
          "name": "",
          "type": "bool"
        }
      ],
      "stateMutability": "pure",
      "type": "function"
    },
    {
      "inputs": [
        {
          "internalType": "bytes32",
          "name": "_ethSignedMessageHash",
          "type": "bytes32"
        },
        {
          "internalType": "bytes",
          "name": "_signature",
          "type": "bytes"
        }
      ],
      "name": "recoverSigner",
      "outputs": [
        {
          "internalType": "address",
          "name": "",
          "type": "address"
        }
      ],
      "stateMutability": "pure",
      "type": "function"
    },
    {
      "inputs": [
        {
          "internalType": "bytes",
          "name": "sig",
          "type": "bytes"
        }
      ],
      "name": "splitSignature",
      "outputs": [
        {
          "internalType": "bytes32",
          "name": "r",
          "type": "bytes32"
        },
        {
          "internalType": "bytes32",
          "name": "s",
          "type": "bytes32"
        },
        {
          "internalType": "uint8",
          "name": "v",
          "type": "uint8"
        }
      ],
      "stateMutability": "pure",
      "type": "function"
    }
  ],
  "bytecode": "0x608060405234801561001057600080fd5b506109e6806100206000396000f3fe608060405234801561001057600080fd5b50600436106100575760003560e01c80638f0edff21461005c57806397aba7f91461008c578063a7bb5803146100bc578063d2b0737b146100ee578063fa5408011461011e575b600080fd5b610076600480360381019061007191906104db565b61014e565b604051610083919061058d565b60405180910390f35b6100a660048036038101906100a191906105de565b6101b0565b6040516100b39190610649565b60405180910390f35b6100d660048036038101906100d19190610664565b61021f565b6040516100e5939291906106d8565b60405180910390f35b6101086004803603810190610103919061070f565b610287565b6040516101159190610762565b60405180910390f35b6101386004803603810190610133919061077d565b6102bd565b6040516101459190610762565b60405180910390f35b60008061015c868686610287565b90506000610169826102bd565b90508773ffffffffffffffffffffffffffffffffffffffff1661018c82866101b0565b73ffffffffffffffffffffffffffffffffffffffff16149250505095945050505050565b6000806000806101bf8561021f565b925092509250600186828585604051600081526020016040526040516101e894939291906107aa565b6020604051602081039080840390855afa15801561020a573d6000803e3d6000fd5b50505060206040510351935050505092915050565b60008060006041845114610268576040517f08c379a000000000000000000000000000000000000000000000000000000000815260040161025f9061084c565b60405180910390fd5b6020840151925060408401519150606084015160001a90509193909250565b600083838360405160200161029e939291906108d5565b6040516020818303038152906040528051906020012090509392505050565b6000816040516020016102d0919061098a565b604051602081830303815290604052805190602001209050919050565b6000604051905090565b600080fd5b600080fd5b600073ffffffffffffffffffffffffffffffffffffffff82169050919050565b600061032c82610301565b9050919050565b61033c81610321565b811461034757600080fd5b50565b60008135905061035981610333565b92915050565b6000819050919050565b6103728161035f565b811461037d57600080fd5b50565b60008135905061038f81610369565b92915050565b600080fd5b600080fd5b6000601f19601f8301169050919050565b7f4e487b7100000000000000000000000000000000000000000000000000000000600052604160045260246000fd5b6103e88261039f565b810181811067ffffffffffffffff82111715610407576104066103b0565b5b80604052505050565b600061041a6102ed565b905061042682826103df565b919050565b600067ffffffffffffffff821115610446576104456103b0565b5b61044f8261039f565b9050602081019050919050565b82818337600083830152505050565b600061047e6104798461042b565b610410565b90508281526020810184848401111561049a5761049961039a565b5b6104a584828561045c565b509392505050565b600082601f8301126104c2576104c1610395565b5b81356104d284826020860161046b565b91505092915050565b600080600080600060a086880312156104f7576104f66102f7565b5b60006105058882890161034a565b95505060206105168882890161034a565b945050604061052788828901610380565b935050606061053888828901610380565b925050608086013567ffffffffffffffff811115610559576105586102fc565b5b610565888289016104ad565b9150509295509295909350565b60008115159050919050565b61058781610572565b82525050565b60006020820190506105a2600083018461057e565b92915050565b6000819050919050565b6105bb816105a8565b81146105c657600080fd5b50565b6000813590506105d8816105b2565b92915050565b600080604083850312156105f5576105f46102f7565b5b6000610603858286016105c9565b925050602083013567ffffffffffffffff811115610624576106236102fc565b5b610630858286016104ad565b9150509250929050565b61064381610321565b82525050565b600060208201905061065e600083018461063a565b92915050565b60006020828403121561067a576106796102f7565b5b600082013567ffffffffffffffff811115610698576106976102fc565b5b6106a4848285016104ad565b91505092915050565b6106b6816105a8565b82525050565b600060ff82169050919050565b6106d2816106bc565b82525050565b60006060820190506106ed60008301866106ad565b6106fa60208301856106ad565b61070760408301846106c9565b949350505050565b600080600060608486031215610728576107276102f7565b5b60006107368682870161034a565b935050602061074786828701610380565b925050604061075886828701610380565b9150509250925092565b600060208201905061077760008301846106ad565b92915050565b600060208284031215610793576107926102f7565b5b60006107a1848285016105c9565b91505092915050565b60006080820190506107bf60008301876106ad565b6107cc60208301866106c9565b6107d960408301856106ad565b6107e660608301846106ad565b95945050505050565b600082825260208201905092915050565b7f696e76616c6964207369676e6174757265206c656e6774680000000000000000600082015250565b60006108366018836107ef565b915061084182610800565b602082019050919050565b6000602082019050818103600083015261086581610829565b9050919050565b60008160601b9050919050565b60006108848261086c565b9050919050565b600061089682610879565b9050919050565b6108ae6108a982610321565b61088b565b82525050565b6000819050919050565b6108cf6108ca8261035f565b6108b4565b82525050565b60006108e1828661089d565b6014820191506108f182856108be565b60208201915061090182846108be565b602082019150819050949350505050565b600081905092915050565b7f19457468657265756d205369676e6564204d6573736167653a0a333200000000600082015250565b6000610953601c83610912565b915061095e8261091d565b601c82019050919050565b6000819050919050565b61098461097f826105a8565b610969565b82525050565b600061099582610946565b91506109a18284610973565b6020820191508190509291505056fea264697066735822122048ee7185120d661fae0a8357a7bebfb9e1a3ff97390ab1b049dde9ca73ed30fa64736f6c634300080e0033",
  "immutableReferences": {},
  "source": "// SPDX-License-Identifier: MIT\npragma solidity ^0.8.14;\n\ncontract SignatureValidator {\n    function getMessageHash(\n        address _to, uint256 _tokenId, uint256 _nonce\n    )\n        public pure returns (bytes32)\n    {\n        return keccak256(abi.encodePacked(_to, _tokenId, _nonce));\n    }\n\n\n    function getEthSignedMessageHash(bytes32 _messageHash) public pure returns (bytes32) {\n        return keccak256(abi.encodePacked(\"\\x19Ethereum Signed Message:\\n32\", _messageHash));\n    }\n\n    function verifyAuthorization(\n        address _signer,\n        address _to, uint256 _tokenId, uint256 _nonce,\n        bytes memory signature\n    )\n        public pure returns (bool)\n    {\n        bytes32 messageHash = getMessageHash(_to, _tokenId,  _nonce);\n        bytes32 ethSignedMessageHash = getEthSignedMessageHash(messageHash);\n\n        return recoverSigner(ethSignedMessageHash, signature) == _signer;\n    }\n\n    function recoverSigner(bytes32 _ethSignedMessageHash, bytes memory _signature)\n        public pure returns (address)\n    {\n        (bytes32 r, bytes32 s, uint8 v) = splitSignature(_signature);\n\n        return ecrecover(_ethSignedMessageHash, v, r, s);\n    }\n\n    function splitSignature(bytes memory sig)\n        public pure returns (bytes32 r, bytes32 s, uint8 v)\n    {\n        require(sig.length == 65, \"invalid signature length\");\n\n        assembly {\n            /*\n            First 32 bytes stores the length of the signature\n\n            add(sig, 32) = pointer of sig + 32\n            effectively, skips first 32 bytes of signature\n\n            mload(p) loads next 32 bytes starting at the memory address p into memory\n            */\n\n            // first 32 bytes, after the length prefix\n            r := mload(add(sig, 32))\n            // second 32 bytes\n            s := mload(add(sig, 64))\n            // final byte (first byte of the next 32 bytes)\n            v := byte(0, mload(add(sig, 96)))\n        }\n\n        // implicitly return (r, s, v)\n    }\n}",
  "sourcePath": "/media/anon/data/Documents/wildcards/wildcards-contracts/contracts/SignatureValidator.sol",
  "compiler": {
    "name": "solc",
    "version": "0.8.14+commit.80d49f37.Emscripten.clang"
  },
  "schemaVersion": "3.4.7",
  "updatedAt": "2022-06-14T09:49:17.591Z",
  "devdoc": {
    "kind": "dev",
    "methods": {},
    "version": 1
  },
  "userdoc": {
    "kind": "user",
    "methods": {},
    "version": 1
  }
}