{
  "contractName": "Wildcards",
  "abi": [
    {
      "inputs": [
        {
          "internalType": "address",
          "name": "controller_",
          "type": "address"
        },
        {
          "internalType": "uint256",
          "name": "maxMint_",
          "type": "uint256"
        },
        {
          "internalType": "string",
          "name": "baseURI_",
          "type": "string"
        },
        {
          "internalType": "string",
          "name": "name_",
          "type": "string"
        },
        {
          "internalType": "string",
          "name": "symbol_",
          "type": "string"
        }
      ],
      "stateMutability": "nonpayable",
      "type": "constructor"
    },
    {
      "anonymous": false,
      "inputs": [
        {
          "indexed": true,
          "internalType": "address",
          "name": "owner",
          "type": "address"
        },
        {
          "indexed": true,
          "internalType": "address",
          "name": "approved",
          "type": "address"
        },
        {
          "indexed": true,
          "internalType": "uint256",
          "name": "tokenId",
          "type": "uint256"
        }
      ],
      "name": "Approval",
      "type": "event"
    },
    {
      "anonymous": false,
      "inputs": [
        {
          "indexed": true,
          "internalType": "address",
          "name": "owner",
          "type": "address"
        },
        {
          "indexed": true,
          "internalType": "address",
          "name": "operator",
          "type": "address"
        },
        {
          "indexed": false,
          "internalType": "bool",
          "name": "approved",
          "type": "bool"
        }
      ],
      "name": "ApprovalForAll",
      "type": "event"
    },
    {
      "anonymous": false,
      "inputs": [
        {
          "indexed": true,
          "internalType": "address",
          "name": "previousOwner",
          "type": "address"
        },
        {
          "indexed": true,
          "internalType": "address",
          "name": "newOwner",
          "type": "address"
        }
      ],
      "name": "OwnershipTransferred",
      "type": "event"
    },
    {
      "anonymous": false,
      "inputs": [
        {
          "indexed": true,
          "internalType": "address",
          "name": "from",
          "type": "address"
        },
        {
          "indexed": true,
          "internalType": "address",
          "name": "to",
          "type": "address"
        },
        {
          "indexed": true,
          "internalType": "uint256",
          "name": "tokenId",
          "type": "uint256"
        }
      ],
      "name": "Transfer",
      "type": "event"
    },
    {
      "inputs": [
        {
          "internalType": "address",
          "name": "to",
          "type": "address"
        },
        {
          "internalType": "uint256",
          "name": "tokenId",
          "type": "uint256"
        }
      ],
      "name": "approve",
      "outputs": [],
      "stateMutability": "nonpayable",
      "type": "function"
    },
    {
      "inputs": [
        {
          "internalType": "address",
          "name": "owner",
          "type": "address"
        }
      ],
      "name": "balanceOf",
      "outputs": [
        {
          "internalType": "uint256",
          "name": "",
          "type": "uint256"
        }
      ],
      "stateMutability": "view",
      "type": "function",
      "constant": true
    },
    {
      "inputs": [],
      "name": "baseURI",
      "outputs": [
        {
          "internalType": "string",
          "name": "",
          "type": "string"
        }
      ],
      "stateMutability": "view",
      "type": "function",
      "constant": true
    },
    {
      "inputs": [],
      "name": "contractURI",
      "outputs": [
        {
          "internalType": "string",
          "name": "",
          "type": "string"
        }
      ],
      "stateMutability": "view",
      "type": "function",
      "constant": true
    },
    {
      "inputs": [],
      "name": "controller",
      "outputs": [
        {
          "internalType": "address",
          "name": "",
          "type": "address"
        }
      ],
      "stateMutability": "view",
      "type": "function",
      "constant": true
    },
    {
      "inputs": [
        {
          "internalType": "uint256",
          "name": "",
          "type": "uint256"
        }
      ],
      "name": "controllerNonces",
      "outputs": [
        {
          "internalType": "bool",
          "name": "",
          "type": "bool"
        }
      ],
      "stateMutability": "view",
      "type": "function",
      "constant": true
    },
    {
      "inputs": [
        {
          "internalType": "uint256",
          "name": "tokenId",
          "type": "uint256"
        }
      ],
      "name": "getApproved",
      "outputs": [
        {
          "internalType": "address",
          "name": "",
          "type": "address"
        }
      ],
      "stateMutability": "view",
      "type": "function",
      "constant": true
    },
    {
      "inputs": [
        {
          "internalType": "bytes32",
          "name": "_messageHash",
          "type": "bytes32"
        }
      ],
      "name": "getEthSignedMessageHash",
      "outputs": [
        {
          "internalType": "bytes32",
          "name": "",
          "type": "bytes32"
        }
      ],
      "stateMutability": "pure",
      "type": "function",
      "constant": true
    },
    {
      "inputs": [
        {
          "internalType": "address",
          "name": "_to",
          "type": "address"
        },
        {
          "internalType": "uint256",
          "name": "_tokenId",
          "type": "uint256"
        },
        {
          "internalType": "uint256",
          "name": "_nonce",
          "type": "uint256"
        }
      ],
      "name": "getMessageHash",
      "outputs": [
        {
          "internalType": "bytes32",
          "name": "",
          "type": "bytes32"
        }
      ],
      "stateMutability": "pure",
      "type": "function",
      "constant": true
    },
    {
      "inputs": [
        {
          "internalType": "address",
          "name": "owner",
          "type": "address"
        },
        {
          "internalType": "address",
          "name": "operator",
          "type": "address"
        }
      ],
      "name": "isApprovedForAll",
      "outputs": [
        {
          "internalType": "bool",
          "name": "",
          "type": "bool"
        }
      ],
      "stateMutability": "view",
      "type": "function",
      "constant": true
    },
    {
      "inputs": [],
      "name": "maxMint",
      "outputs": [
        {
          "internalType": "uint256",
          "name": "",
          "type": "uint256"
        }
      ],
      "stateMutability": "view",
      "type": "function",
      "constant": true
    },
    {
      "inputs": [],
      "name": "name",
      "outputs": [
        {
          "internalType": "string",
          "name": "",
          "type": "string"
        }
      ],
      "stateMutability": "view",
      "type": "function",
      "constant": true
    },
    {
      "inputs": [],
      "name": "owner",
      "outputs": [
        {
          "internalType": "address",
          "name": "",
          "type": "address"
        }
      ],
      "stateMutability": "view",
      "type": "function",
      "constant": true
    },
    {
      "inputs": [
        {
          "internalType": "uint256",
          "name": "tokenId",
          "type": "uint256"
        }
      ],
      "name": "ownerOf",
      "outputs": [
        {
          "internalType": "address",
          "name": "",
          "type": "address"
        }
      ],
      "stateMutability": "view",
      "type": "function",
      "constant": true
    },
    {
      "inputs": [],
      "name": "price",
      "outputs": [
        {
          "internalType": "uint256",
          "name": "",
          "type": "uint256"
        }
      ],
      "stateMutability": "view",
      "type": "function",
      "constant": true
    },
    {
      "inputs": [
        {
          "internalType": "bytes32",
          "name": "_ethSignedMessageHash",
          "type": "bytes32"
        },
        {
          "internalType": "bytes",
          "name": "_signature",
          "type": "bytes"
        }
      ],
      "name": "recoverSigner",
      "outputs": [
        {
          "internalType": "address",
          "name": "",
          "type": "address"
        }
      ],
      "stateMutability": "pure",
      "type": "function",
      "constant": true
    },
    {
      "inputs": [],
      "name": "released",
      "outputs": [
        {
          "internalType": "bool",
          "name": "",
          "type": "bool"
        }
      ],
      "stateMutability": "view",
      "type": "function",
      "constant": true
    },
    {
      "inputs": [],
      "name": "renounceOwnership",
      "outputs": [],
      "stateMutability": "nonpayable",
      "type": "function"
    },
    {
      "inputs": [
        {
          "internalType": "address",
          "name": "operator",
          "type": "address"
        },
        {
          "internalType": "bool",
          "name": "approved",
          "type": "bool"
        }
      ],
      "name": "setApprovalForAll",
      "outputs": [],
      "stateMutability": "nonpayable",
      "type": "function"
    },
    {
      "inputs": [
        {
          "internalType": "bytes",
          "name": "sig",
          "type": "bytes"
        }
      ],
      "name": "splitSignature",
      "outputs": [
        {
          "internalType": "bytes32",
          "name": "r",
          "type": "bytes32"
        },
        {
          "internalType": "bytes32",
          "name": "s",
          "type": "bytes32"
        },
        {
          "internalType": "uint8",
          "name": "v",
          "type": "uint8"
        }
      ],
      "stateMutability": "pure",
      "type": "function",
      "constant": true
    },
    {
      "inputs": [
        {
          "internalType": "bytes4",
          "name": "interfaceId",
          "type": "bytes4"
        }
      ],
      "name": "supportsInterface",
      "outputs": [
        {
          "internalType": "bool",
          "name": "",
          "type": "bool"
        }
      ],
      "stateMutability": "view",
      "type": "function",
      "constant": true
    },
    {
      "inputs": [],
      "name": "symbol",
      "outputs": [
        {
          "internalType": "string",
          "name": "",
          "type": "string"
        }
      ],
      "stateMutability": "view",
      "type": "function",
      "constant": true
    },
    {
      "inputs": [
        {
          "internalType": "uint256",
          "name": "tokenId",
          "type": "uint256"
        }
      ],
      "name": "tokenURI",
      "outputs": [
        {
          "internalType": "string",
          "name": "",
          "type": "string"
        }
      ],
      "stateMutability": "view",
      "type": "function",
      "constant": true
    },
    {
      "inputs": [
        {
          "internalType": "address",
          "name": "newOwner",
          "type": "address"
        }
      ],
      "name": "transferOwnership",
      "outputs": [],
      "stateMutability": "nonpayable",
      "type": "function"
    },
    {
      "inputs": [
        {
          "internalType": "address",
          "name": "_signer",
          "type": "address"
        },
        {
          "internalType": "address",
          "name": "_to",
          "type": "address"
        },
        {
          "internalType": "uint256",
          "name": "_tokenId",
          "type": "uint256"
        },
        {
          "internalType": "uint256",
          "name": "_nonce",
          "type": "uint256"
        },
        {
          "internalType": "bytes",
          "name": "signature",
          "type": "bytes"
        }
      ],
      "name": "verifyAuthorization",
      "outputs": [
        {
          "internalType": "bool",
          "name": "",
          "type": "bool"
        }
      ],
      "stateMutability": "pure",
      "type": "function",
      "constant": true
    },
    {
      "inputs": [
        {
          "internalType": "uint256",
          "name": "price_",
          "type": "uint256"
        }
      ],
      "name": "setPrice",
      "outputs": [],
      "stateMutability": "nonpayable",
      "type": "function"
    },
    {
      "inputs": [
        {
          "internalType": "bool",
          "name": "released_",
          "type": "bool"
        }
      ],
      "name": "setReleased",
      "outputs": [],
      "stateMutability": "nonpayable",
      "type": "function"
    },
    {
      "inputs": [
        {
          "internalType": "uint256",
          "name": "maxMint_",
          "type": "uint256"
        }
      ],
      "name": "setMaxMint",
      "outputs": [],
      "stateMutability": "nonpayable",
      "type": "function"
    },
    {
      "inputs": [
        {
          "internalType": "address",
          "name": "controller_",
          "type": "address"
        }
      ],
      "name": "setController",
      "outputs": [],
      "stateMutability": "nonpayable",
      "type": "function"
    },
    {
      "inputs": [
        {
          "internalType": "string",
          "name": "baseURI_",
          "type": "string"
        }
      ],
      "name": "setBaseURI",
      "outputs": [],
      "stateMutability": "nonpayable",
      "type": "function"
    },
    {
      "inputs": [
        {
          "internalType": "string",
          "name": "contractURI_",
          "type": "string"
        }
      ],
      "name": "setContractURI",
      "outputs": [],
      "stateMutability": "nonpayable",
      "type": "function"
    },
    {
      "inputs": [],
      "name": "withdraw",
      "outputs": [],
      "stateMutability": "nonpayable",
      "type": "function"
    },
    {
      "inputs": [
        {
          "internalType": "uint256",
          "name": "tokenId_",
          "type": "uint256"
        },
        {
          "internalType": "uint256",
          "name": "nonce",
          "type": "uint256"
        },
        {
          "internalType": "bytes",
          "name": "authorization",
          "type": "bytes"
        }
      ],
      "name": "mint",
      "outputs": [],
      "stateMutability": "payable",
      "type": "function",
      "payable": true
    },
    {
      "inputs": [
        {
          "internalType": "address",
          "name": "to",
          "type": "address"
        },
        {
          "internalType": "uint256",
          "name": "tokenId_",
          "type": "uint256"
        }
      ],
      "name": "ownerMint",
      "outputs": [],
      "stateMutability": "nonpayable",
      "type": "function"
    },
    {
      "inputs": [
        {
          "internalType": "address",
          "name": "from",
          "type": "address"
        },
        {
          "internalType": "address",
          "name": "to",
          "type": "address"
        },
        {
          "internalType": "uint256",
          "name": "tokenId",
          "type": "uint256"
        }
      ],
      "name": "transferFrom",
      "outputs": [],
      "stateMutability": "nonpayable",
      "type": "function"
    },
    {
      "inputs": [
        {
          "internalType": "address",
          "name": "from",
          "type": "address"
        },
        {
          "internalType": "address",
          "name": "to",
          "type": "address"
        },
        {
          "internalType": "uint256",
          "name": "tokenId",
          "type": "uint256"
        }
      ],
      "name": "safeTransferFrom",
      "outputs": [],
      "stateMutability": "nonpayable",
      "type": "function"
    },
    {
      "inputs": [
        {
          "internalType": "address",
          "name": "from",
          "type": "address"
        },
        {
          "internalType": "address",
          "name": "to",
          "type": "address"
        },
        {
          "internalType": "uint256",
          "name": "tokenId",
          "type": "uint256"
        },
        {
          "internalType": "bytes",
          "name": "_data",
          "type": "bytes"
        }
      ],
      "name": "safeTransferFrom",
      "outputs": [],
      "stateMutability": "nonpayable",
      "type": "function"
    }
  ],
  "bytecode": "0x60806040523480156200001157600080fd5b5060405162004a3938038062004a398339818101604052810190620000379190620004b2565b8181620000596200004d620000f960201b60201c565b6200010160201b60201c565b816001908051906020019062000071929190620001c5565b5080600290805190602001906200008a929190620001c5565b50505082600b9080519060200190620000a5929190620001c5565b5083600a8190555084600960016101000a81548173ffffffffffffffffffffffffffffffffffffffff021916908373ffffffffffffffffffffffffffffffffffffffff1602179055505050505050620005fb565b600033905090565b60008060009054906101000a900473ffffffffffffffffffffffffffffffffffffffff169050816000806101000a81548173ffffffffffffffffffffffffffffffffffffffff021916908373ffffffffffffffffffffffffffffffffffffffff1602179055508173ffffffffffffffffffffffffffffffffffffffff168173ffffffffffffffffffffffffffffffffffffffff167f8be0079c531659141344cd1fd0a4f28419497f9722a3daafe3b4186f6b6457e060405160405180910390a35050565b828054620001d390620005c6565b90600052602060002090601f016020900481019282620001f7576000855562000243565b82601f106200021257805160ff191683800117855562000243565b8280016001018555821562000243579182015b828111156200024257825182559160200191906001019062000225565b5b50905062000252919062000256565b5090565b5b808211156200027157600081600090555060010162000257565b5090565b6000604051905090565b600080fd5b600080fd5b600073ffffffffffffffffffffffffffffffffffffffff82169050919050565b6000620002b68262000289565b9050919050565b620002c881620002a9565b8114620002d457600080fd5b50565b600081519050620002e881620002bd565b92915050565b6000819050919050565b6200030381620002ee565b81146200030f57600080fd5b50565b6000815190506200032381620002f8565b92915050565b600080fd5b600080fd5b6000601f19601f8301169050919050565b7f4e487b7100000000000000000000000000000000000000000000000000000000600052604160045260246000fd5b6200037e8262000333565b810181811067ffffffffffffffff82111715620003a0576200039f62000344565b5b80604052505050565b6000620003b562000275565b9050620003c3828262000373565b919050565b600067ffffffffffffffff821115620003e657620003e562000344565b5b620003f18262000333565b9050602081019050919050565b60005b838110156200041e57808201518184015260208101905062000401565b838111156200042e576000848401525b50505050565b60006200044b6200044584620003c8565b620003a9565b9050828152602081018484840111156200046a57620004696200032e565b5b62000477848285620003fe565b509392505050565b600082601f83011262000497576200049662000329565b5b8151620004a984826020860162000434565b91505092915050565b600080600080600060a08688031215620004d157620004d06200027f565b5b6000620004e188828901620002d7565b9550506020620004f48882890162000312565b945050604086015167ffffffffffffffff81111562000518576200051762000284565b5b62000526888289016200047f565b935050606086015167ffffffffffffffff8111156200054a576200054962000284565b5b62000558888289016200047f565b925050608086015167ffffffffffffffff8111156200057c576200057b62000284565b5b6200058a888289016200047f565b9150509295509295909350565b7f4e487b7100000000000000000000000000000000000000000000000000000000600052602260045260246000fd5b60006002820490506001821680620005df57607f821691505b602082108103620005f557620005f462000597565b5b50919050565b61442e806200060b6000396000f3fe60806040526004361061021a5760003560e01c80638f0edff211610123578063a7bb5803116100ab578063e8a3d4851161006f578063e8a3d485146107e6578063e985e9c514610811578063f2fde38b1461084e578063f77c479114610877578063fa540801146108a25761021a565b8063a7bb5803146106db578063b88d4fde1461071a578063c87b56dd14610743578063d1fea3d514610780578063d2b0737b146107a95761021a565b806395d89b41116100f257806395d89b41146105f4578063961325211461061f57806397aba7f91461064a578063a035b1fe14610687578063a22cb465146106b25761021a565b80638f0edff21461053c57806391b7f5ed1461057957806392eefe9b146105a2578063938e3d7b146105cb5761021a565b806350e2cbbe116101a65780636c0360eb116101755780636c0360eb1461046757806370a0823114610492578063715018a6146104cf5780637501f741146104e65780638da5cb5b146105115761021a565b806350e2cbbe1461039b578063547520fe146103d857806355f804b3146104015780636352211e1461042a5761021a565b8063095ea7b3116101ed578063095ea7b3146102e057806323b872dd146103095780633ccfd60b1461033257806342842e0e14610349578063484b973c146103725761021a565b806301ffc9a71461021f57806306fdde031461025c578063081812fc1461028757806308dc9f42146102c4575b600080fd5b34801561022b57600080fd5b5061024660048036038101906102419190612aba565b6108df565b6040516102539190612b02565b60405180910390f35b34801561026857600080fd5b506102716109c1565b60405161027e9190612bb6565b60405180910390f35b34801561029357600080fd5b506102ae60048036038101906102a99190612c0e565b610a53565b6040516102bb9190612c7c565b60405180910390f35b6102de60048036038101906102d99190612dcc565b610ad8565b005b3480156102ec57600080fd5b5061030760048036038101906103029190612e67565b610c33565b005b34801561031557600080fd5b50610330600480360381019061032b9190612ea7565b610d4a565b005b34801561033e57600080fd5b50610347610da9565b005b34801561035557600080fd5b50610370600480360381019061036b9190612ea7565b610ea8565b005b34801561037e57600080fd5b5061039960048036038101906103949190612e67565b610f17565b005b3480156103a757600080fd5b506103c260048036038101906103bd9190612c0e565b610fe6565b6040516103cf9190612b02565b60405180910390f35b3480156103e457600080fd5b506103ff60048036038101906103fa9190612c0e565b611006565b005b34801561040d57600080fd5b5061042860048036038101906104239190612f9b565b61108c565b005b34801561043657600080fd5b50610451600480360381019061044c9190612c0e565b611122565b60405161045e9190612c7c565b60405180910390f35b34801561047357600080fd5b5061047c6111d3565b6040516104899190612bb6565b60405180910390f35b34801561049e57600080fd5b506104b960048036038101906104b49190612fe4565b611261565b6040516104c69190613020565b60405180910390f35b3480156104db57600080fd5b506104e4611318565b005b3480156104f257600080fd5b506104fb6113a0565b6040516105089190613020565b60405180910390f35b34801561051d57600080fd5b506105266113a6565b6040516105339190612c7c565b60405180910390f35b34801561054857600080fd5b50610563600480360381019061055e919061303b565b6113cf565b6040516105709190612b02565b60405180910390f35b34801561058557600080fd5b506105a0600480360381019061059b9190612c0e565b611431565b005b3480156105ae57600080fd5b506105c960048036038101906105c49190612fe4565b6114b7565b005b3480156105d757600080fd5b506105f260048036038101906105ed9190612f9b565b611577565b005b34801561060057600080fd5b5061060961160d565b6040516106169190612bb6565b60405180910390f35b34801561062b57600080fd5b5061063461169f565b6040516106419190612b02565b60405180910390f35b34801561065657600080fd5b50610671600480360381019061066c9190613108565b6116b2565b60405161067e9190612c7c565b60405180910390f35b34801561069357600080fd5b5061069c611721565b6040516106a99190613020565b60405180910390f35b3480156106be57600080fd5b506106d960048036038101906106d49190613190565b611727565b005b3480156106e757600080fd5b5061070260048036038101906106fd91906131d0565b61173d565b60405161071193929190613244565b60405180910390f35b34801561072657600080fd5b50610741600480360381019061073c919061327b565b6117a5565b005b34801561074f57600080fd5b5061076a60048036038101906107659190612c0e565b611807565b6040516107779190612bb6565b60405180910390f35b34801561078c57600080fd5b506107a760048036038101906107a291906132fe565b6118ae565b005b3480156107b557600080fd5b506107d060048036038101906107cb919061332b565b611947565b6040516107dd919061337e565b60405180910390f35b3480156107f257600080fd5b506107fb61197d565b6040516108089190612bb6565b60405180910390f35b34801561081d57600080fd5b5061083860048036038101906108339190613399565b611a0b565b6040516108459190612b02565b60405180910390f35b34801561085a57600080fd5b5061087560048036038101906108709190612fe4565b611a9f565b005b34801561088357600080fd5b5061088c611b96565b6040516108999190612c7c565b60405180910390f35b3480156108ae57600080fd5b506108c960048036038101906108c491906133d9565b611bbc565b6040516108d6919061337e565b60405180910390f35b60007f80ac58cd000000000000000000000000000000000000000000000000000000007bffffffffffffffffffffffffffffffffffffffffffffffffffffffff1916827bffffffffffffffffffffffffffffffffffffffffffffffffffffffff191614806109aa57507f5b5e139f000000000000000000000000000000000000000000000000000000007bffffffffffffffffffffffffffffffffffffffffffffffffffffffff1916827bffffffffffffffffffffffffffffffffffffffffffffffffffffffff1916145b806109ba57506109b982611bec565b5b9050919050565b6060600180546109d090613435565b80601f01602080910402602001604051908101604052809291908181526020018280546109fc90613435565b8015610a495780601f10610a1e57610100808354040283529160200191610a49565b820191906000526020600020905b815481529060010190602001808311610a2c57829003601f168201915b5050505050905090565b6000610a5e82611c56565b610a9d576040517f08c379a0000000000000000000000000000000000000000000000000000000008152600401610a94906134d8565b60405180910390fd5b6005600083815260200190815260200160002060009054906101000a900473ffffffffffffffffffffffffffffffffffffffff169050919050565b600754341015610b1d576040517f08c379a0000000000000000000000000000000000000000000000000000000008152600401610b1490613544565b60405180910390fd5b600a54831115610b62576040517f08c379a0000000000000000000000000000000000000000000000000000000008152600401610b59906135b0565b60405180910390fd5b600c600083815260200190815260200160002060009054906101000a900460ff1615610bc3576040517f08c379a0000000000000000000000000000000000000000000000000000000008152600401610bba9061361c565b60405180910390fd5b6001600c600084815260200190815260200160002060006101000a81548160ff021916908315150217905550610c1e600960019054906101000a900473ffffffffffffffffffffffffffffffffffffffff16338585856113cf565b15610c2e57610c2d3384611cc2565b5b505050565b6000610c3e82611122565b90508073ffffffffffffffffffffffffffffffffffffffff168373ffffffffffffffffffffffffffffffffffffffff1603610cae576040517f08c379a0000000000000000000000000000000000000000000000000000000008152600401610ca5906136ae565b60405180910390fd5b8073ffffffffffffffffffffffffffffffffffffffff16610ccd611ce0565b73ffffffffffffffffffffffffffffffffffffffff161480610cfc5750610cfb81610cf6611ce0565b611a0b565b5b610d3b576040517f08c379a0000000000000000000000000000000000000000000000000000000008152600401610d3290613740565b60405180910390fd5b610d458383611ce8565b505050565b600960009054906101000a900460ff16610d99576040517f08c379a0000000000000000000000000000000000000000000000000000000008152600401610d90906137ac565b60405180910390fd5b610da4838383611da1565b505050565b610db1611ce0565b73ffffffffffffffffffffffffffffffffffffffff16610dcf6113a6565b73ffffffffffffffffffffffffffffffffffffffff1614610e25576040517f08c379a0000000000000000000000000000000000000000000000000000000008152600401610e1c90613818565b60405180910390fd5b6000610e2f6113a6565b73ffffffffffffffffffffffffffffffffffffffff166108fc479081150290604051600060405180830381858888f19350505050905080610ea5576040517f08c379a0000000000000000000000000000000000000000000000000000000008152600401610e9c90613884565b60405180910390fd5b50565b600960009054906101000a900460ff16610ef7576040517f08c379a0000000000000000000000000000000000000000000000000000000008152600401610eee906137ac565b60405180910390fd5b610f12838383604051806020016040528060008152506117a5565b505050565b610f1f611ce0565b73ffffffffffffffffffffffffffffffffffffffff16610f3d6113a6565b73ffffffffffffffffffffffffffffffffffffffff1614610f93576040517f08c379a0000000000000000000000000000000000000000000000000000000008152600401610f8a90613818565b60405180910390fd5b600a54811115610fd8576040517f08c379a0000000000000000000000000000000000000000000000000000000008152600401610fcf906135b0565b60405180910390fd5b610fe28282611cc2565b5050565b600c6020528060005260406000206000915054906101000a900460ff1681565b61100e611ce0565b73ffffffffffffffffffffffffffffffffffffffff1661102c6113a6565b73ffffffffffffffffffffffffffffffffffffffff1614611082576040517f08c379a000000000000000000000000000000000000000000000000000000000815260040161107990613818565b60405180910390fd5b80600a8190555050565b611094611ce0565b73ffffffffffffffffffffffffffffffffffffffff166110b26113a6565b73ffffffffffffffffffffffffffffffffffffffff1614611108576040517f08c379a00000000000000000000000000000000000000000000000000000000081526004016110ff90613818565b60405180910390fd5b80600b908051906020019061111e9291906129ab565b5050565b6000806003600084815260200190815260200160002060009054906101000a900473ffffffffffffffffffffffffffffffffffffffff169050600073ffffffffffffffffffffffffffffffffffffffff168173ffffffffffffffffffffffffffffffffffffffff16036111ca576040517f08c379a00000000000000000000000000000000000000000000000000000000081526004016111c190613916565b60405180910390fd5b80915050919050565b600b80546111e090613435565b80601f016020809104026020016040519081016040528092919081815260200182805461120c90613435565b80156112595780601f1061122e57610100808354040283529160200191611259565b820191906000526020600020905b81548152906001019060200180831161123c57829003601f168201915b505050505081565b60008073ffffffffffffffffffffffffffffffffffffffff168273ffffffffffffffffffffffffffffffffffffffff16036112d1576040517f08c379a00000000000000000000000000000000000000000000000000000000081526004016112c8906139a8565b60405180910390fd5b600460008373ffffffffffffffffffffffffffffffffffffffff1673ffffffffffffffffffffffffffffffffffffffff168152602001908152602001600020549050919050565b611320611ce0565b73ffffffffffffffffffffffffffffffffffffffff1661133e6113a6565b73ffffffffffffffffffffffffffffffffffffffff1614611394576040517f08c379a000000000000000000000000000000000000000000000000000000000815260040161138b90613818565b60405180910390fd5b61139e6000611e01565b565b600a5481565b60008060009054906101000a900473ffffffffffffffffffffffffffffffffffffffff16905090565b6000806113dd868686611947565b905060006113ea82611bbc565b90508773ffffffffffffffffffffffffffffffffffffffff1661140d82866116b2565b73ffffffffffffffffffffffffffffffffffffffff16149250505095945050505050565b611439611ce0565b73ffffffffffffffffffffffffffffffffffffffff166114576113a6565b73ffffffffffffffffffffffffffffffffffffffff16146114ad576040517f08c379a00000000000000000000000000000000000000000000000000000000081526004016114a490613818565b60405180910390fd5b8060078190555050565b6114bf611ce0565b73ffffffffffffffffffffffffffffffffffffffff166114dd6113a6565b73ffffffffffffffffffffffffffffffffffffffff1614611533576040517f08c379a000000000000000000000000000000000000000000000000000000000815260040161152a90613818565b60405180910390fd5b80600960016101000a81548173ffffffffffffffffffffffffffffffffffffffff021916908373ffffffffffffffffffffffffffffffffffffffff16021790555050565b61157f611ce0565b73ffffffffffffffffffffffffffffffffffffffff1661159d6113a6565b73ffffffffffffffffffffffffffffffffffffffff16146115f3576040517f08c379a00000000000000000000000000000000000000000000000000000000081526004016115ea90613818565b60405180910390fd5b80600890805190602001906116099291906129ab565b5050565b60606002805461161c90613435565b80601f016020809104026020016040519081016040528092919081815260200182805461164890613435565b80156116955780601f1061166a57610100808354040283529160200191611695565b820191906000526020600020905b81548152906001019060200180831161167857829003601f168201915b5050505050905090565b600960009054906101000a900460ff1681565b6000806000806116c18561173d565b925092509250600186828585604051600081526020016040526040516116ea94939291906139c8565b6020604051602081039080840390855afa15801561170c573d6000803e3d6000fd5b50505060206040510351935050505092915050565b60075481565b611739611732611ce0565b8383611ec5565b5050565b60008060006041845114611786576040517f08c379a000000000000000000000000000000000000000000000000000000000815260040161177d90613a59565b60405180910390fd5b6020840151925060408401519150606084015160001a90509193909250565b6117b66117b0611ce0565b83612031565b6117f5576040517f08c379a00000000000000000000000000000000000000000000000000000000081526004016117ec90613aeb565b60405180910390fd5b6118018484848461210f565b50505050565b606061181282611c56565b611851576040517f08c379a000000000000000000000000000000000000000000000000000000000815260040161184890613b7d565b60405180910390fd5b600061185b61216b565b9050600081511161187b57604051806020016040528060008152506118a6565b80611885846121fd565b604051602001611896929190613bd9565b6040516020818303038152906040525b915050919050565b6118b6611ce0565b73ffffffffffffffffffffffffffffffffffffffff166118d46113a6565b73ffffffffffffffffffffffffffffffffffffffff161461192a576040517f08c379a000000000000000000000000000000000000000000000000000000000815260040161192190613818565b60405180910390fd5b80600960006101000a81548160ff02191690831515021790555050565b600083838360405160200161195e93929190613c66565b6040516020818303038152906040528051906020012090509392505050565b6008805461198a90613435565b80601f01602080910402602001604051908101604052809291908181526020018280546119b690613435565b8015611a035780601f106119d857610100808354040283529160200191611a03565b820191906000526020600020905b8154815290600101906020018083116119e657829003601f168201915b505050505081565b6000600660008473ffffffffffffffffffffffffffffffffffffffff1673ffffffffffffffffffffffffffffffffffffffff16815260200190815260200160002060008373ffffffffffffffffffffffffffffffffffffffff1673ffffffffffffffffffffffffffffffffffffffff16815260200190815260200160002060009054906101000a900460ff16905092915050565b611aa7611ce0565b73ffffffffffffffffffffffffffffffffffffffff16611ac56113a6565b73ffffffffffffffffffffffffffffffffffffffff1614611b1b576040517f08c379a0000000000000000000000000000000000000000000000000000000008152600401611b1290613818565b60405180910390fd5b600073ffffffffffffffffffffffffffffffffffffffff168173ffffffffffffffffffffffffffffffffffffffff1603611b8a576040517f08c379a0000000000000000000000000000000000000000000000000000000008152600401611b8190613d15565b60405180910390fd5b611b9381611e01565b50565b600960019054906101000a900473ffffffffffffffffffffffffffffffffffffffff1681565b600081604051602001611bcf9190613da2565b604051602081830303815290604052805190602001209050919050565b60007f01ffc9a7000000000000000000000000000000000000000000000000000000007bffffffffffffffffffffffffffffffffffffffffffffffffffffffff1916827bffffffffffffffffffffffffffffffffffffffffffffffffffffffff1916149050919050565b60008073ffffffffffffffffffffffffffffffffffffffff166003600084815260200190815260200160002060009054906101000a900473ffffffffffffffffffffffffffffffffffffffff1673ffffffffffffffffffffffffffffffffffffffff1614159050919050565b611cdc82826040518060200160405280600081525061235d565b5050565b600033905090565b816005600083815260200190815260200160002060006101000a81548173ffffffffffffffffffffffffffffffffffffffff021916908373ffffffffffffffffffffffffffffffffffffffff160217905550808273ffffffffffffffffffffffffffffffffffffffff16611d5b83611122565b73ffffffffffffffffffffffffffffffffffffffff167f8c5be1e5ebec7d5bd14f71427d1e84f3dd0314c0f7b2291e5b200ac8c7c3b92560405160405180910390a45050565b611db2611dac611ce0565b82612031565b611df1576040517f08c379a0000000000000000000000000000000000000000000000000000000008152600401611de890613aeb565b60405180910390fd5b611dfc8383836123b8565b505050565b60008060009054906101000a900473ffffffffffffffffffffffffffffffffffffffff169050816000806101000a81548173ffffffffffffffffffffffffffffffffffffffff021916908373ffffffffffffffffffffffffffffffffffffffff1602179055508173ffffffffffffffffffffffffffffffffffffffff168173ffffffffffffffffffffffffffffffffffffffff167f8be0079c531659141344cd1fd0a4f28419497f9722a3daafe3b4186f6b6457e060405160405180910390a35050565b8173ffffffffffffffffffffffffffffffffffffffff168373ffffffffffffffffffffffffffffffffffffffff1603611f33576040517f08c379a0000000000000000000000000000000000000000000000000000000008152600401611f2a90613e14565b60405180910390fd5b80600660008573ffffffffffffffffffffffffffffffffffffffff1673ffffffffffffffffffffffffffffffffffffffff16815260200190815260200160002060008473ffffffffffffffffffffffffffffffffffffffff1673ffffffffffffffffffffffffffffffffffffffff16815260200190815260200160002060006101000a81548160ff0219169083151502179055508173ffffffffffffffffffffffffffffffffffffffff168373ffffffffffffffffffffffffffffffffffffffff167f17307eab39ab6107e8899845ad3d59bd9653f200f220920489ca2b5937696c31836040516120249190612b02565b60405180910390a3505050565b600061203c82611c56565b61207b576040517f08c379a000000000000000000000000000000000000000000000000000000000815260040161207290613ea6565b60405180910390fd5b600061208683611122565b90508073ffffffffffffffffffffffffffffffffffffffff168473ffffffffffffffffffffffffffffffffffffffff1614806120c857506120c78185611a0b565b5b8061210657508373ffffffffffffffffffffffffffffffffffffffff166120ee84610a53565b73ffffffffffffffffffffffffffffffffffffffff16145b91505092915050565b61211a8484846123b8565b6121268484848461261e565b612165576040517f08c379a000000000000000000000000000000000000000000000000000000000815260040161215c90613f38565b60405180910390fd5b50505050565b6060600b805461217a90613435565b80601f01602080910402602001604051908101604052809291908181526020018280546121a690613435565b80156121f35780601f106121c8576101008083540402835291602001916121f3565b820191906000526020600020905b8154815290600101906020018083116121d657829003601f168201915b5050505050905090565b606060008203612244576040518060400160405280600181526020017f30000000000000000000000000000000000000000000000000000000000000008152509050612358565b600082905060005b6000821461227657808061225f90613f87565b915050600a8261226f9190613ffe565b915061224c565b60008167ffffffffffffffff81111561229257612291612ca1565b5b6040519080825280601f01601f1916602001820160405280156122c45781602001600182028036833780820191505090505b5090505b60008514612351576001826122dd919061402f565b9150600a856122ec9190614063565b60306122f89190614094565b60f81b81838151811061230e5761230d6140ea565b5b60200101907effffffffffffffffffffffffffffffffffffffffffffffffffffffffffffff1916908160001a905350600a8561234a9190613ffe565b94506122c8565b8093505050505b919050565b61236783836127a5565b612374600084848461261e565b6123b3576040517f08c379a00000000000000000000000000000000000000000000000000000000081526004016123aa90613f38565b60405180910390fd5b505050565b8273ffffffffffffffffffffffffffffffffffffffff166123d882611122565b73ffffffffffffffffffffffffffffffffffffffff161461242e576040517f08c379a00000000000000000000000000000000000000000000000000000000081526004016124259061418b565b60405180910390fd5b600073ffffffffffffffffffffffffffffffffffffffff168273ffffffffffffffffffffffffffffffffffffffff160361249d576040517f08c379a00000000000000000000000000000000000000000000000000000000081526004016124949061421d565b60405180910390fd5b6124a883838361297e565b6124b3600082611ce8565b6001600460008573ffffffffffffffffffffffffffffffffffffffff1673ffffffffffffffffffffffffffffffffffffffff1681526020019081526020016000206000828254612503919061402f565b925050819055506001600460008473ffffffffffffffffffffffffffffffffffffffff1673ffffffffffffffffffffffffffffffffffffffff168152602001908152602001600020600082825461255a9190614094565b92505081905550816003600083815260200190815260200160002060006101000a81548173ffffffffffffffffffffffffffffffffffffffff021916908373ffffffffffffffffffffffffffffffffffffffff160217905550808273ffffffffffffffffffffffffffffffffffffffff168473ffffffffffffffffffffffffffffffffffffffff167fddf252ad1be2c89b69c2b068fc378daa952ba7f163c4a11628f55a4df523b3ef60405160405180910390a4612619838383612983565b505050565b600061263f8473ffffffffffffffffffffffffffffffffffffffff16612988565b15612798578373ffffffffffffffffffffffffffffffffffffffff1663150b7a02612668611ce0565b8786866040518563ffffffff1660e01b815260040161268a9493929190614292565b6020604051808303816000875af19250505080156126c657506040513d601f19601f820116820180604052508101906126c391906142f3565b60015b612748573d80600081146126f6576040519150601f19603f3d011682016040523d82523d6000602084013e6126fb565b606091505b506000815103612740576040517f08c379a000000000000000000000000000000000000000000000000000000000815260040161273790613f38565b60405180910390fd5b805181602001fd5b63150b7a0260e01b7bffffffffffffffffffffffffffffffffffffffffffffffffffffffff1916817bffffffffffffffffffffffffffffffffffffffffffffffffffffffff19161491505061279d565b600190505b949350505050565b600073ffffffffffffffffffffffffffffffffffffffff168273ffffffffffffffffffffffffffffffffffffffff1603612814576040517f08c379a000000000000000000000000000000000000000000000000000000000815260040161280b9061436c565b60405180910390fd5b61281d81611c56565b1561285d576040517f08c379a0000000000000000000000000000000000000000000000000000000008152600401612854906143d8565b60405180910390fd5b6128696000838361297e565b6001600460008473ffffffffffffffffffffffffffffffffffffffff1673ffffffffffffffffffffffffffffffffffffffff16815260200190815260200160002060008282546128b99190614094565b92505081905550816003600083815260200190815260200160002060006101000a81548173ffffffffffffffffffffffffffffffffffffffff021916908373ffffffffffffffffffffffffffffffffffffffff160217905550808273ffffffffffffffffffffffffffffffffffffffff16600073ffffffffffffffffffffffffffffffffffffffff167fddf252ad1be2c89b69c2b068fc378daa952ba7f163c4a11628f55a4df523b3ef60405160405180910390a461297a60008383612983565b5050565b505050565b505050565b6000808273ffffffffffffffffffffffffffffffffffffffff163b119050919050565b8280546129b790613435565b90600052602060002090601f0160209004810192826129d95760008555612a20565b82601f106129f257805160ff1916838001178555612a20565b82800160010185558215612a20579182015b82811115612a1f578251825591602001919060010190612a04565b5b509050612a2d9190612a31565b5090565b5b80821115612a4a576000816000905550600101612a32565b5090565b6000604051905090565b600080fd5b600080fd5b60007fffffffff0000000000000000000000000000000000000000000000000000000082169050919050565b612a9781612a62565b8114612aa257600080fd5b50565b600081359050612ab481612a8e565b92915050565b600060208284031215612ad057612acf612a58565b5b6000612ade84828501612aa5565b91505092915050565b60008115159050919050565b612afc81612ae7565b82525050565b6000602082019050612b176000830184612af3565b92915050565b600081519050919050565b600082825260208201905092915050565b60005b83811015612b57578082015181840152602081019050612b3c565b83811115612b66576000848401525b50505050565b6000601f19601f8301169050919050565b6000612b8882612b1d565b612b928185612b28565b9350612ba2818560208601612b39565b612bab81612b6c565b840191505092915050565b60006020820190508181036000830152612bd08184612b7d565b905092915050565b6000819050919050565b612beb81612bd8565b8114612bf657600080fd5b50565b600081359050612c0881612be2565b92915050565b600060208284031215612c2457612c23612a58565b5b6000612c3284828501612bf9565b91505092915050565b600073ffffffffffffffffffffffffffffffffffffffff82169050919050565b6000612c6682612c3b565b9050919050565b612c7681612c5b565b82525050565b6000602082019050612c916000830184612c6d565b92915050565b600080fd5b600080fd5b7f4e487b7100000000000000000000000000000000000000000000000000000000600052604160045260246000fd5b612cd982612b6c565b810181811067ffffffffffffffff82111715612cf857612cf7612ca1565b5b80604052505050565b6000612d0b612a4e565b9050612d178282612cd0565b919050565b600067ffffffffffffffff821115612d3757612d36612ca1565b5b612d4082612b6c565b9050602081019050919050565b82818337600083830152505050565b6000612d6f612d6a84612d1c565b612d01565b905082815260208101848484011115612d8b57612d8a612c9c565b5b612d96848285612d4d565b509392505050565b600082601f830112612db357612db2612c97565b5b8135612dc3848260208601612d5c565b91505092915050565b600080600060608486031215612de557612de4612a58565b5b6000612df386828701612bf9565b9350506020612e0486828701612bf9565b925050604084013567ffffffffffffffff811115612e2557612e24612a5d565b5b612e3186828701612d9e565b9150509250925092565b612e4481612c5b565b8114612e4f57600080fd5b50565b600081359050612e6181612e3b565b92915050565b60008060408385031215612e7e57612e7d612a58565b5b6000612e8c85828601612e52565b9250506020612e9d85828601612bf9565b9150509250929050565b600080600060608486031215612ec057612ebf612a58565b5b6000612ece86828701612e52565b9350506020612edf86828701612e52565b9250506040612ef086828701612bf9565b9150509250925092565b600067ffffffffffffffff821115612f1557612f14612ca1565b5b612f1e82612b6c565b9050602081019050919050565b6000612f3e612f3984612efa565b612d01565b905082815260208101848484011115612f5a57612f59612c9c565b5b612f65848285612d4d565b509392505050565b600082601f830112612f8257612f81612c97565b5b8135612f92848260208601612f2b565b91505092915050565b600060208284031215612fb157612fb0612a58565b5b600082013567ffffffffffffffff811115612fcf57612fce612a5d565b5b612fdb84828501612f6d565b91505092915050565b600060208284031215612ffa57612ff9612a58565b5b600061300884828501612e52565b91505092915050565b61301a81612bd8565b82525050565b60006020820190506130356000830184613011565b92915050565b600080600080600060a0868803121561305757613056612a58565b5b600061306588828901612e52565b955050602061307688828901612e52565b945050604061308788828901612bf9565b935050606061309888828901612bf9565b925050608086013567ffffffffffffffff8111156130b9576130b8612a5d565b5b6130c588828901612d9e565b9150509295509295909350565b6000819050919050565b6130e5816130d2565b81146130f057600080fd5b50565b600081359050613102816130dc565b92915050565b6000806040838503121561311f5761311e612a58565b5b600061312d858286016130f3565b925050602083013567ffffffffffffffff81111561314e5761314d612a5d565b5b61315a85828601612d9e565b9150509250929050565b61316d81612ae7565b811461317857600080fd5b50565b60008135905061318a81613164565b92915050565b600080604083850312156131a7576131a6612a58565b5b60006131b585828601612e52565b92505060206131c68582860161317b565b9150509250929050565b6000602082840312156131e6576131e5612a58565b5b600082013567ffffffffffffffff81111561320457613203612a5d565b5b61321084828501612d9e565b91505092915050565b613222816130d2565b82525050565b600060ff82169050919050565b61323e81613228565b82525050565b60006060820190506132596000830186613219565b6132666020830185613219565b6132736040830184613235565b949350505050565b6000806000806080858703121561329557613294612a58565b5b60006132a387828801612e52565b94505060206132b487828801612e52565b93505060406132c587828801612bf9565b925050606085013567ffffffffffffffff8111156132e6576132e5612a5d565b5b6132f287828801612d9e565b91505092959194509250565b60006020828403121561331457613313612a58565b5b60006133228482850161317b565b91505092915050565b60008060006060848603121561334457613343612a58565b5b600061335286828701612e52565b935050602061336386828701612bf9565b925050604061337486828701612bf9565b9150509250925092565b60006020820190506133936000830184613219565b92915050565b600080604083850312156133b0576133af612a58565b5b60006133be85828601612e52565b92505060206133cf85828601612e52565b9150509250929050565b6000602082840312156133ef576133ee612a58565b5b60006133fd848285016130f3565b91505092915050565b7f4e487b7100000000000000000000000000000000000000000000000000000000600052602260045260246000fd5b6000600282049050600182168061344d57607f821691505b6020821081036134605761345f613406565b5b50919050565b7f4552433732313a20617070726f76656420717565727920666f72206e6f6e657860008201527f697374656e7420746f6b656e0000000000000000000000000000000000000000602082015250565b60006134c2602c83612b28565b91506134cd82613466565b604082019050919050565b600060208201905081810360008301526134f1816134b5565b9050919050565b7f496e73756666696369656e742066756e64730000000000000000000000000000600082015250565b600061352e601283612b28565b9150613539826134f8565b602082019050919050565b6000602082019050818103600083015261355d81613521565b9050919050565b7f546f6b656e20696420696e76616c696400000000000000000000000000000000600082015250565b600061359a601083612b28565b91506135a582613564565b602082019050919050565b600060208201905081810360008301526135c98161358d565b9050919050565b7f496e76616c6964206e6f6e636500000000000000000000000000000000000000600082015250565b6000613606600d83612b28565b9150613611826135d0565b602082019050919050565b60006020820190508181036000830152613635816135f9565b9050919050565b7f4552433732313a20617070726f76616c20746f2063757272656e74206f776e6560008201527f7200000000000000000000000000000000000000000000000000000000000000602082015250565b6000613698602183612b28565b91506136a38261363c565b604082019050919050565b600060208201905081810360008301526136c78161368b565b9050919050565b7f4552433732313a20617070726f76652063616c6c6572206973206e6f74206f7760008201527f6e6572206e6f7220617070726f76656420666f7220616c6c0000000000000000602082015250565b600061372a603883612b28565b9150613735826136ce565b604082019050919050565b600060208201905081810360008301526137598161371d565b9050919050565b7f546f6b656e206e6f742072656c65617365640000000000000000000000000000600082015250565b6000613796601283612b28565b91506137a182613760565b602082019050919050565b600060208201905081810360008301526137c581613789565b9050919050565b7f4f776e61626c653a2063616c6c6572206973206e6f7420746865206f776e6572600082015250565b6000613802602083612b28565b915061380d826137cc565b602082019050919050565b60006020820190508181036000830152613831816137f5565b9050919050565b7f4661696c656420746f2073656e64204574686572000000000000000000000000600082015250565b600061386e601483612b28565b915061387982613838565b602082019050919050565b6000602082019050818103600083015261389d81613861565b9050919050565b7f4552433732313a206f776e657220717565727920666f72206e6f6e657869737460008201527f656e7420746f6b656e0000000000000000000000000000000000000000000000602082015250565b6000613900602983612b28565b915061390b826138a4565b604082019050919050565b6000602082019050818103600083015261392f816138f3565b9050919050565b7f4552433732313a2062616c616e636520717565727920666f7220746865207a6560008201527f726f206164647265737300000000000000000000000000000000000000000000602082015250565b6000613992602a83612b28565b915061399d82613936565b604082019050919050565b600060208201905081810360008301526139c181613985565b9050919050565b60006080820190506139dd6000830187613219565b6139ea6020830186613235565b6139f76040830185613219565b613a046060830184613219565b95945050505050565b7f696e76616c6964207369676e6174757265206c656e6774680000000000000000600082015250565b6000613a43601883612b28565b9150613a4e82613a0d565b602082019050919050565b60006020820190508181036000830152613a7281613a36565b9050919050565b7f4552433732313a207472616e736665722063616c6c6572206973206e6f74206f60008201527f776e6572206e6f7220617070726f766564000000000000000000000000000000602082015250565b6000613ad5603183612b28565b9150613ae082613a79565b604082019050919050565b60006020820190508181036000830152613b0481613ac8565b9050919050565b7f4552433732314d657461646174613a2055524920717565727920666f72206e6f60008201527f6e6578697374656e7420746f6b656e0000000000000000000000000000000000602082015250565b6000613b67602f83612b28565b9150613b7282613b0b565b604082019050919050565b60006020820190508181036000830152613b9681613b5a565b9050919050565b600081905092915050565b6000613bb382612b1d565b613bbd8185613b9d565b9350613bcd818560208601612b39565b80840191505092915050565b6000613be58285613ba8565b9150613bf18284613ba8565b91508190509392505050565b60008160601b9050919050565b6000613c1582613bfd565b9050919050565b6000613c2782613c0a565b9050919050565b613c3f613c3a82612c5b565b613c1c565b82525050565b6000819050919050565b613c60613c5b82612bd8565b613c45565b82525050565b6000613c728286613c2e565b601482019150613c828285613c4f565b602082019150613c928284613c4f565b602082019150819050949350505050565b7f4f776e61626c653a206e6577206f776e657220697320746865207a65726f206160008201527f6464726573730000000000000000000000000000000000000000000000000000602082015250565b6000613cff602683612b28565b9150613d0a82613ca3565b604082019050919050565b60006020820190508181036000830152613d2e81613cf2565b9050919050565b7f19457468657265756d205369676e6564204d6573736167653a0a333200000000600082015250565b6000613d6b601c83613b9d565b9150613d7682613d35565b601c82019050919050565b6000819050919050565b613d9c613d97826130d2565b613d81565b82525050565b6000613dad82613d5e565b9150613db98284613d8b565b60208201915081905092915050565b7f4552433732313a20617070726f766520746f2063616c6c657200000000000000600082015250565b6000613dfe601983612b28565b9150613e0982613dc8565b602082019050919050565b60006020820190508181036000830152613e2d81613df1565b9050919050565b7f4552433732313a206f70657261746f7220717565727920666f72206e6f6e657860008201527f697374656e7420746f6b656e0000000000000000000000000000000000000000602082015250565b6000613e90602c83612b28565b9150613e9b82613e34565b604082019050919050565b60006020820190508181036000830152613ebf81613e83565b9050919050565b7f4552433732313a207472616e7366657220746f206e6f6e20455243373231526560008201527f63656976657220696d706c656d656e7465720000000000000000000000000000602082015250565b6000613f22603283612b28565b9150613f2d82613ec6565b604082019050919050565b60006020820190508181036000830152613f5181613f15565b9050919050565b7f4e487b7100000000000000000000000000000000000000000000000000000000600052601160045260246000fd5b6000613f9282612bd8565b91507fffffffffffffffffffffffffffffffffffffffffffffffffffffffffffffffff8203613fc457613fc3613f58565b5b600182019050919050565b7f4e487b7100000000000000000000000000000000000000000000000000000000600052601260045260246000fd5b600061400982612bd8565b915061401483612bd8565b92508261402457614023613fcf565b5b828204905092915050565b600061403a82612bd8565b915061404583612bd8565b92508282101561405857614057613f58565b5b828203905092915050565b600061406e82612bd8565b915061407983612bd8565b92508261408957614088613fcf565b5b828206905092915050565b600061409f82612bd8565b91506140aa83612bd8565b9250827fffffffffffffffffffffffffffffffffffffffffffffffffffffffffffffffff038211156140df576140de613f58565b5b828201905092915050565b7f4e487b7100000000000000000000000000000000000000000000000000000000600052603260045260246000fd5b7f4552433732313a207472616e736665722066726f6d20696e636f72726563742060008201527f6f776e6572000000000000000000000000000000000000000000000000000000602082015250565b6000614175602583612b28565b915061418082614119565b604082019050919050565b600060208201905081810360008301526141a481614168565b9050919050565b7f4552433732313a207472616e7366657220746f20746865207a65726f2061646460008201527f7265737300000000000000000000000000000000000000000000000000000000602082015250565b6000614207602483612b28565b9150614212826141ab565b604082019050919050565b60006020820190508181036000830152614236816141fa565b9050919050565b600081519050919050565b600082825260208201905092915050565b60006142648261423d565b61426e8185614248565b935061427e818560208601612b39565b61428781612b6c565b840191505092915050565b60006080820190506142a76000830187612c6d565b6142b46020830186612c6d565b6142c16040830185613011565b81810360608301526142d38184614259565b905095945050505050565b6000815190506142ed81612a8e565b92915050565b60006020828403121561430957614308612a58565b5b6000614317848285016142de565b91505092915050565b7f4552433732313a206d696e7420746f20746865207a65726f2061646472657373600082015250565b6000614356602083612b28565b915061436182614320565b602082019050919050565b6000602082019050818103600083015261438581614349565b9050919050565b7f4552433732313a20746f6b656e20616c7265616479206d696e74656400000000600082015250565b60006143c2601c83612b28565b91506143cd8261438c565b602082019050919050565b600060208201905081810360008301526143f1816143b5565b905091905056fea26469706673582212205bc76c2f58641ee95274fc742e7d2798977cb22e8373d2801e2169117fc14a2064736f6c634300080e0033",
  "immutableReferences": {},
  "source": "// SPDX-License-Identifier: MIT\npragma solidity ^0.8.14;\n\nimport \"@openzeppelin/contracts/token/ERC721/ERC721.sol\";\nimport \"@openzeppelin/contracts/access/Ownable.sol\";\nimport \"./SignatureValidator.sol\";\n\ncontract Wildcards is Ownable, ERC721, SignatureValidator {\n    uint256 public price;\n    string public contractURI;\n    bool public released;\n    address public controller;\n    uint256 public maxMint;\n    string public baseURI;\n\n    mapping (uint256 => bool) public controllerNonces;\n\n    constructor(address controller_, uint maxMint_, string memory baseURI_, string memory name_, string memory symbol_) ERC721(name_, symbol_) {\n        baseURI = baseURI_;\n        maxMint = maxMint_;\n        controller = controller_;\n    }\n\n    function setPrice(uint256 price_) public onlyOwner {\n        price = price_;\n    }\n\n    function setReleased(bool released_) public onlyOwner {\n        released = released_;\n    }\n\n    function setMaxMint(uint256 maxMint_) public onlyOwner {\n        maxMint = maxMint_;\n    }\n\n    function setController(address controller_) public onlyOwner {\n        controller = controller_;\n    }\n\n    function setBaseURI(string memory baseURI_) public onlyOwner {\n        baseURI = baseURI_;\n    }\n\n    function _baseURI() internal view override returns (string memory) {\n        return baseURI;\n    }\n\n    function setContractURI(string memory contractURI_) public onlyOwner {\n        contractURI = contractURI_;\n    }\n\n    function withdraw() public onlyOwner {\n        bool sent = payable(owner()).send(address(this).balance);\n        require(sent, \"Failed to send Ether\");\n    }\n\n    function mint(uint256 tokenId_, uint256 nonce, bytes memory authorization) public payable {\n        require(msg.value >= price, \"Insufficient funds\");\n        require(tokenId_ <= maxMint, \"Token id invalid\");\n        require(!controllerNonces[nonce], \"Invalid nonce\");\n        controllerNonces[nonce] = true;\n        if (verifyAuthorization(controller, msg.sender, tokenId_, nonce, authorization)) {\n            _safeMint(msg.sender, tokenId_);\n        }\n    }\n\n    function ownerMint(address to, uint256 tokenId_) public onlyOwner {\n        require(tokenId_ <= maxMint, \"Token id invalid\");\n        _safeMint(to, tokenId_);\n    }\n\n    function transferFrom(address from, address to, uint256 tokenId) public virtual override {\n        require(released, \"Token not released\");\n        super.transferFrom(from, to, tokenId);\n    }\n\n    function safeTransferFrom(address from, address to, uint256 tokenId) public virtual override {\n        require(released, \"Token not released\");\n        super.safeTransferFrom(from, to, tokenId, \"\");\n    }\n}",
  "sourcePath": "/media/anon/data/Documents/wildcards/wildcards-contracts/contracts/Wildcards.sol",
  "compiler": {
    "name": "solc",
    "version": "0.8.14+commit.80d49f37.Emscripten.clang"
  },
  "schemaVersion": "3.4.7",
  "updatedAt": "2022-06-14T09:49:21.169Z",
  "networkType": "ethereum",
  "devdoc": {
    "kind": "dev",
    "methods": {
      "approve(address,uint256)": {
        "details": "See {IERC721-approve}."
      },
      "balanceOf(address)": {
        "details": "See {IERC721-balanceOf}."
      },
      "getApproved(uint256)": {
        "details": "See {IERC721-getApproved}."
      },
      "isApprovedForAll(address,address)": {
        "details": "See {IERC721-isApprovedForAll}."
      },
      "name()": {
        "details": "See {IERC721Metadata-name}."
      },
      "owner()": {
        "details": "Returns the address of the current owner."
      },
      "ownerOf(uint256)": {
        "details": "See {IERC721-ownerOf}."
      },
      "renounceOwnership()": {
        "details": "Leaves the contract without owner. It will not be possible to call `onlyOwner` functions anymore. Can only be called by the current owner. NOTE: Renouncing ownership will leave the contract without an owner, thereby removing any functionality that is only available to the owner."
      },
      "safeTransferFrom(address,address,uint256)": {
        "details": "See {IERC721-safeTransferFrom}."
      },
      "safeTransferFrom(address,address,uint256,bytes)": {
        "details": "See {IERC721-safeTransferFrom}."
      },
      "setApprovalForAll(address,bool)": {
        "details": "See {IERC721-setApprovalForAll}."
      },
      "supportsInterface(bytes4)": {
        "details": "See {IERC165-supportsInterface}."
      },
      "symbol()": {
        "details": "See {IERC721Metadata-symbol}."
      },
      "tokenURI(uint256)": {
        "details": "See {IERC721Metadata-tokenURI}."
      },
      "transferFrom(address,address,uint256)": {
        "details": "See {IERC721-transferFrom}."
      },
      "transferOwnership(address)": {
        "details": "Transfers ownership of the contract to a new account (`newOwner`). Can only be called by the current owner."
      }
    },
    "version": 1
  },
  "userdoc": {
    "kind": "user",
    "methods": {},
    "version": 1
  }
}